:1000000075818075D0007560317561377562417595
:10001000633275644775655275664F7567557568C7
:100020005075693175B0FF743812011612014874A9
:100030000E120116120148740112011612014874C1
:10004000061201161201487480120116120148317D
:10005000489002F8E493600A120127120148A302B3
:10006000005474C01201161201489002D6E4936045
:100070000A120127120148A302006D7489120116A9
:1000800012014878407D04120160DDFB74C9120141
:10009000161201487D0612021ADDFB7D0A784079AE
:1000A00060E6FFE7B507390809DDF67401120116AD
:1000B0001201489002E0E493600A120127120148FD
:1000C000A30200B674C0120116120148900302E4A4
:1000D00093600A120127120148A30200CF02011403
:1000E00074011201161201489002F1E493600A12A1
:1000F0000127120148A30200EB74C012011612017D
:100100004890030FE493600A120127120148A302EA
:100110000104314880FE120138F590C2A0C2A1D27C
:10012000A2120148C2A222120138F590D2A0C2A1A7
:10013000D2A2120148C2A222D297C2A0D2A1C2A2C8
:100140003148D2A22097F7227B377CFFDCFEDBFA16
:10015000227A2B7B067C25DCFEDBFADAF600002215
:10016000758000E5B054FFB4FFF63151E5B054FF9F
:10017000B4FF0280F53151E5B054FFB4FF0280EACC
:100180007580FEE5B054FFB4FF497580FDE5B054BD
:10019000FFB4FF447580FBE5B054FFB4FF3F7580AA
:1001A000F7E5B054FFB4FF3A7580EFE5B054FFB403
:1001B000FF357580DFE5B054FFB4FF307580BFE5D3
:1001C000B054FFB4FF2B75807FE5B054FFB4FF2619
:1001D00002016A9003198023900321801E90032955
:1001E00080199003318014900339800F900341806F
:1001F0000A90034980059003518000135003A380A7
:10020000FAE493B4FF0B74011201161201480200C4
:1002100051F61201271201480822758000E5B054FA
:10022000FFB4FFF63151E5B054FFB4FF0280F53161
:1002300051E5B054FFB4FF0280EA7580FEE5B0548A
:10024000FFB4FF497580FDE5B054FFB4FF447580ED
:10025000FBE5B054FFB4FF3F7580F7E5B054FFB441
:10026000FF3A7580EFE5B054FFB4FF357580DFE5E8
:10027000B054FFB4FF307580BFE5B054FFB4FF2B1E
:1002800075807FE5B054FFB4FF2602022490031965
:100290008023900321801E900329801990033180D0
:1002A00014900339800F900341800A900349800520
:1002B0009003518000135003A380FAE493B4FF0B22
:1002C0007401120116120148020051F6742A12013B
:1002D00027120148082250415353574F52443A00C5
:1002E000436F6E67726174756C6174696F6E7321B0
:1002F00000536F7272792100555345524E414D455E
:100300003A0057656C636F6D6520746F2058005418
:10031000727920416761696E004142434445464716
:1003200048494A4B4C4D4E4F5051525354555657D5
:1003300058595A30313233343536373839602140E4
:100340002324255E262A28292D3D5F2B5B5D3A60FC
:090350003C3E2F5C2E2CFF3F0007
:00000001FF
